{
  "abi": [
    {
      "inputs": [],
      "stateMutability": "nonpayable",
      "type": "constructor"
    },
    {
      "anonymous": false,
      "inputs": [
        {
          "indexed": false,
          "internalType": "bytes",
          "name": "",
          "type": "bytes"
        },
        {
          "indexed": false,
          "internalType": "address",
          "name": "",
          "type": "address"
        }
      ],
      "name": "AddEditor",
      "type": "event"
    },
    {
      "anonymous": false,
      "inputs": [
        {
          "indexed": false,
          "internalType": "address",
          "name": "a",
          "type": "address"
        }
      ],
      "name": "LogAddress",
      "type": "event"
    },
    {
      "anonymous": false,
      "inputs": [
        {
          "indexed": false,
          "internalType": "uint256",
          "name": "i",
          "type": "uint256"
        }
      ],
      "name": "LogInt",
      "type": "event"
    },
    {
      "anonymous": false,
      "inputs": [
        {
          "indexed": false,
          "internalType": "string",
          "name": "s",
          "type": "string"
        }
      ],
      "name": "LogString",
      "type": "event"
    },
    {
      "anonymous": false,
      "inputs": [
        {
          "indexed": false,
          "internalType": "uint256",
          "name": "",
          "type": "uint256"
        }
      ],
      "name": "NewData",
      "type": "event"
    },
    {
      "anonymous": false,
      "inputs": [
        {
          "indexed": false,
          "internalType": "bytes",
          "name": "",
          "type": "bytes"
        },
        {
          "indexed": false,
          "internalType": "address",
          "name": "",
          "type": "address"
        }
      ],
      "name": "RemoveEditor",
      "type": "event"
    },
    {
      "anonymous": false,
      "inputs": [
        {
          "indexed": false,
          "internalType": "uint256",
          "name": "root",
          "type": "uint256"
        },
        {
          "indexed": false,
          "internalType": "uint256",
          "name": "last",
          "type": "uint256"
        }
      ],
      "name": "UpdateData",
      "type": "event"
    },
    {
      "inputs": [],
      "name": "ADMIN",
      "outputs": [
        {
          "internalType": "uint8",
          "name": "",
          "type": "uint8"
        }
      ],
      "stateMutability": "view",
      "type": "function"
    },
    {
      "inputs": [
        {
          "internalType": "address",
          "name": "",
          "type": "address"
        }
      ],
      "name": "AuthorID",
      "outputs": [
        {
          "internalType": "uint256",
          "name": "",
          "type": "uint256"
        }
      ],
      "stateMutability": "view",
      "type": "function"
    },
    {
      "inputs": [],
      "name": "EXTENSIBLE_KEY",
      "outputs": [
        {
          "internalType": "uint8",
          "name": "",
          "type": "uint8"
        }
      ],
      "stateMutability": "view",
      "type": "function"
    },
    {
      "inputs": [
        {
          "internalType": "bytes",
          "name": "",
          "type": "bytes"
        }
      ],
      "name": "Keys",
      "outputs": [
        {
          "internalType": "uint256",
          "name": "",
          "type": "uint256"
        }
      ],
      "stateMutability": "view",
      "type": "function"
    },
    {
      "inputs": [],
      "name": "OWNER",
      "outputs": [
        {
          "internalType": "uint8",
          "name": "",
          "type": "uint8"
        }
      ],
      "stateMutability": "view",
      "type": "function"
    },
    {
      "inputs": [],
      "name": "OrgCount",
      "outputs": [
        {
          "internalType": "uint256",
          "name": "",
          "type": "uint256"
        }
      ],
      "stateMutability": "view",
      "type": "function"
    },
    {
      "inputs": [
        {
          "internalType": "uint256",
          "name": "",
          "type": "uint256"
        }
      ],
      "name": "OrganizationID",
      "outputs": [
        {
          "internalType": "bytes",
          "name": "",
          "type": "bytes"
        }
      ],
      "stateMutability": "view",
      "type": "function"
    },
    {
      "inputs": [],
      "name": "STRICT_KEY",
      "outputs": [
        {
          "internalType": "uint8",
          "name": "",
          "type": "uint8"
        }
      ],
      "stateMutability": "view",
      "type": "function"
    },
    {
      "inputs": [
        {
          "internalType": "address",
          "name": "_addr",
          "type": "address"
        }
      ],
      "name": "addAdmin",
      "outputs": [],
      "stateMutability": "nonpayable",
      "type": "function"
    },
    {
      "inputs": [
        {
          "internalType": "address",
          "name": "_addr",
          "type": "address"
        }
      ],
      "name": "addOwner",
      "outputs": [],
      "stateMutability": "nonpayable",
      "type": "function"
    },
    {
      "inputs": [
        {
          "internalType": "uint256",
          "name": "_author",
          "type": "uint256"
        }
      ],
      "name": "addressOf",
      "outputs": [
        {
          "internalType": "address",
          "name": "",
          "type": "address"
        }
      ],
      "stateMutability": "view",
      "type": "function"
    },
    {
      "inputs": [],
      "name": "authorsCount",
      "outputs": [
        {
          "internalType": "uint256",
          "name": "count",
          "type": "uint256"
        }
      ],
      "stateMutability": "view",
      "type": "function"
    },
    {
      "inputs": [
        {
          "internalType": "address",
          "name": "_addr",
          "type": "address"
        },
        {
          "internalType": "bytes",
          "name": "_key",
          "type": "bytes"
        }
      ],
      "name": "canWrite",
      "outputs": [
        {
          "internalType": "bool",
          "name": "",
          "type": "bool"
        }
      ],
      "stateMutability": "view",
      "type": "function"
    },
    {
      "inputs": [
        {
          "internalType": "uint256",
          "name": "_root",
          "type": "uint256"
        }
      ],
      "name": "get",
      "outputs": [
        {
          "internalType": "bytes",
          "name": "",
          "type": "bytes"
        },
        {
          "internalType": "uint256",
          "name": "prev",
          "type": "uint256"
        }
      ],
      "stateMutability": "view",
      "type": "function"
    },
    {
      "inputs": [
        {
          "internalType": "bytes",
          "name": "_key",
          "type": "bytes"
        }
      ],
      "name": "get",
      "outputs": [
        {
          "internalType": "bytes",
          "name": "",
          "type": "bytes"
        },
        {
          "internalType": "uint256",
          "name": "prev",
          "type": "uint256"
        }
      ],
      "stateMutability": "view",
      "type": "function"
    },
    {
      "inputs": [
        {
          "internalType": "uint256",
          "name": "_root",
          "type": "uint256"
        }
      ],
      "name": "getAll",
      "outputs": [
        {
          "internalType": "bytes[]",
          "name": "",
          "type": "bytes[]"
        }
      ],
      "stateMutability": "view",
      "type": "function"
    },
    {
      "inputs": [
        {
          "internalType": "address",
          "name": "_addr",
          "type": "address"
        },
        {
          "internalType": "bytes",
          "name": "_key",
          "type": "bytes"
        },
        {
          "internalType": "bool",
          "name": "extensible",
          "type": "bool"
        }
      ],
      "name": "grant",
      "outputs": [],
      "stateMutability": "nonpayable",
      "type": "function"
    },
    {
      "inputs": [
        {
          "internalType": "bytes",
          "name": "_org",
          "type": "bytes"
        },
        {
          "internalType": "address",
          "name": "_grantee",
          "type": "address"
        }
      ],
      "name": "grantOrg",
      "outputs": [],
      "stateMutability": "nonpayable",
      "type": "function"
    },
    {
      "inputs": [
        {
          "internalType": "uint256",
          "name": "_root",
          "type": "uint256"
        }
      ],
      "name": "length",
      "outputs": [
        {
          "internalType": "uint256",
          "name": "",
          "type": "uint256"
        }
      ],
      "stateMutability": "view",
      "type": "function"
    },
    {
      "inputs": [
        {
          "internalType": "bytes",
          "name": "_from",
          "type": "bytes"
        },
        {
          "internalType": "bytes",
          "name": "_to",
          "type": "bytes"
        }
      ],
      "name": "link",
      "outputs": [],
      "stateMutability": "nonpayable",
      "type": "function"
    },
    {
      "inputs": [
        {
          "internalType": "bytes",
          "name": "_key",
          "type": "bytes"
        },
        {
          "internalType": "bytes",
          "name": "_value",
          "type": "bytes"
        },
        {
          "internalType": "address",
          "name": "_grantee",
          "type": "address"
        }
      ],
      "name": "newData",
      "outputs": [
        {
          "internalType": "uint256",
          "name": "root",
          "type": "uint256"
        }
      ],
      "stateMutability": "nonpayable",
      "type": "function"
    },
    {
      "inputs": [],
      "name": "nodeCount",
      "outputs": [
        {
          "internalType": "uint256",
          "name": "",
          "type": "uint256"
        }
      ],
      "stateMutability": "view",
      "type": "function"
    },
    {
      "inputs": [
        {
          "internalType": "bytes",
          "name": "_org",
          "type": "bytes"
        }
      ],
      "name": "orgEditors",
      "outputs": [
        {
          "internalType": "uint256[]",
          "name": "",
          "type": "uint256[]"
        }
      ],
      "stateMutability": "view",
      "type": "function"
    },
    {
      "inputs": [
        {
          "internalType": "address",
          "name": "_addr",
          "type": "address"
        }
      ],
      "name": "ownedOrgs",
      "outputs": [
        {
          "internalType": "uint256[]",
          "name": "",
          "type": "uint256[]"
        }
      ],
      "stateMutability": "view",
      "type": "function"
    },
    {
      "inputs": [
        {
          "internalType": "address",
          "name": "_addr",
          "type": "address"
        }
      ],
      "name": "removeRole",
      "outputs": [],
      "stateMutability": "nonpayable",
      "type": "function"
    },
    {
      "inputs": [
        {
          "internalType": "address",
          "name": "_addr",
          "type": "address"
        },
        {
          "internalType": "bytes",
          "name": "_key",
          "type": "bytes"
        }
      ],
      "name": "revoke",
      "outputs": [],
      "stateMutability": "nonpayable",
      "type": "function"
    },
    {
      "inputs": [
        {
          "internalType": "bytes",
          "name": "_org",
          "type": "bytes"
        },
        {
          "internalType": "address",
          "name": "_grantee",
          "type": "address"
        }
      ],
      "name": "revokeOrg",
      "outputs": [],
      "stateMutability": "nonpayable",
      "type": "function"
    },
    {
      "inputs": [
        {
          "internalType": "address",
          "name": "",
          "type": "address"
        }
      ],
      "name": "roles",
      "outputs": [
        {
          "internalType": "uint8",
          "name": "",
          "type": "uint8"
        }
      ],
      "stateMutability": "view",
      "type": "function"
    },
    {
      "inputs": [
        {
          "internalType": "bytes",
          "name": "_key",
          "type": "bytes"
        },
        {
          "internalType": "bytes",
          "name": "_value",
          "type": "bytes"
        },
        {
          "internalType": "bool",
          "name": "_patch",
          "type": "bool"
        }
      ],
      "name": "update",
      "outputs": [],
      "stateMutability": "nonpayable",
      "type": "function"
    }
  ],
  "bytecode": {
    "object": "0x60806040523480156200001157600080fd5b5033600081815260208181526040808320805460ff191660ff179055600290915290205462000094576001805480820182557fb10e2d527612073b26eecdfd717e6a320cf44b4afac2b0732d9fcbe2b7fa0cf60180546001600160a01b0319166001600160a01b0384169081179091559054600091825260026020526040909120555b50604051620000a39062000133565b604051809103906000f080158015620000c0573d6000803e3d6000fd5b50600b80546001600160a01b0319166001600160a01b0392909216919091179055604051620000ef9062000141565b604051809103906000f0801580156200010c573d6000803e3d6000fd5b50600c80546001600160a01b0319166001600160a01b03929092169190911790556200014f565b6106ad806200249183390190565b6105d78062002b3e83390190565b612332806200015f6000396000f3fe608060405234801561001057600080fd5b50600436106101cf5760003560e01c80637065cb4811610104578063aa8b99d2116100a2578063d6d7d52511610071578063d6d7d52514610400578063e3e5766914610413578063e4e1adf01461021f578063ebd4138a1461043e57600080fd5b8063aa8b99d2146103a7578063b297ba7d146103ba578063c9b004ba146103cd578063d44bbbd9146103ed57600080fd5b806399374642116100de578063993746421461033e5780639a97384414610361578063a9ca067c14610374578063aa6b32ee1461038757600080fd5b80637065cb48146102f75780637c4024ee1461030a5780639507d39a1461031d57600080fd5b80632a0acc6a1161017157806356c9a91a1161014b57806356c9a91a146102a85780636da49b83146102bb5780636eef8892146102c457806370480275146102e457600080fd5b80632a0acc6a1461026d5780633c077a48146102755780634762155d1461029557600080fd5b8063117803e3116101ad578063117803e31461021f57806311a800bc146102275780631cba5ac91461025257806325ca819f1461026557600080fd5b80630aa509c9146101d45780630c81d4bd146101f35780630eb7cb6d14610208575b600080fd5b6101dc600281565b60405160ff90911681526020015b60405180910390f35b610206610201366004611b2a565b610461565b005b61021160085481565b6040519081526020016101ea565b6101dc600181565b61023a610235366004611b8b565b610555565b6040516001600160a01b0390911681526020016101ea565b610211610260366004611be5565b6105d6565b600154610211565b6101dc60ff81565b610288610283366004611b8b565b61060b565b6040516101ea9190611cc1565b6102066102a3366004611d23565b610834565b6102066102b6366004611d3e565b610874565b61021160055481565b6102d76102d2366004611b8b565b610ad7565b6040516101ea9190611d91565b6102066102f2366004611d23565b610b71565b610206610305366004611d23565b610b9e565b610206610318366004611da4565b610bc8565b61033061032b366004611b8b565b610c2d565b6040516101ea929190611e0f565b6101dc61034c366004611d23565b60006020819052908152604090205460ff1681565b61020661036f366004611e31565b610d11565b610206610382366004611d3e565b610d6f565b61039a610395366004611d23565b610fbf565b6040516101ea9190611e7e565b6102116103b5366004611b8b565b611038565b6102066103c8366004611ec2565b61109f565b6102116103db366004611d23565b60026020526000908152604090205481565b61039a6103fb366004611f45565b611127565b61033061040e366004611f45565b61119f565b610211610421366004611f86565b805160208183018101805160068252928201919093012091525481565b61045161044c366004611fc2565b6111d8565b60405190151581526020016101ea565b3360009081526020819052604090205460ff1661047d57600080fd5b6001600160a01b03831660009081526002602052604090205483906104f6576001805480820182557fb10e2d527612073b26eecdfd717e6a320cf44b4afac2b0732d9fcbe2b7fa0cf60180546001600160a01b0319166001600160a01b0384169081179091559054600091825260026020526040909120555b81610502576001610505565b60025b6001600160a01b03851660009081526004602052604090819020905161052c908690612014565b908152604051908190036020019020805460ff9290921660ff1990921691909117905550505050565b6000808211801561056857506001548211155b61059f5760405162461bcd60e51b815260206004820152600360248201526261753f60e81b60448201526064015b60405180910390fd5b60016105ab8184612046565b815481106105bb576105bb61205d565b6000918252602090912001546001600160a01b031692915050565b3360009081526020819052604081205460ff166105f257600080fd5b6105ff8686868686611337565b90505b95945050505050565b6060600061061883611038565b90506000816001600160401b0381111561063457610634611a67565b60405190808252806020026020018201604052801561066757816020015b60608152602001906001900390816106525790505b506000858152600760205260409020600101549091508061073f576000858152600760205260409020805461069b90612073565b80601f01602080910402602001604051908101604052809291908181526020018280546106c790612073565b80156107145780601f106106e957610100808354040283529160200191610714565b820191906000526020600020905b8154815290600101906020018083116106f757829003601f168201915b50505050508260008151811061072c5761072c61205d565b6020908102919091010152509392505050565b60005b8381101561082a576000828152600760205260409020805461076390612073565b80601f016020809104026020016040519081016040528092919081815260200182805461078f90612073565b80156107dc5780601f106107b1576101008083540402835291602001916107dc565b820191906000526020600020905b8154815290600101906020018083116107bf57829003601f168201915b50505050508382815181106107f3576107f361205d565b6020026020010181905250600760008381526020019081526020016000206002015491508080610822906120ae565b915050610742565b5090949350505050565b3360009081526020819052604090205460ff9081161461085357600080fd5b6001600160a01b03166000908152602081905260409020805460ff19169055565b3360009081526020819052604090205460ff1661089057600080fd5b600983836040516108a29291906120c9565b9081526020016040518091039020546000141561090f576008546108c79060016120d9565b60088190556040516009906108df90869086906120c9565b9081526040805160209281900383019020929092556008546000908152600a9091522061090d90848461193e565b505b61093c8184846040516020016109269291906120f1565b6040516020818303038152906040526000610461565b610969818484604051602001610953929190612111565b6040516020818303038152906040526001610461565b610980818484604051602001610953929190612139565b600b546001600160a01b038281166000908152600260205260409081902054905163440e3aef60e11b8152919092169163881c75de916109c791879187919060040161218a565b600060405180830381600087803b1580156109e157600080fd5b505af11580156109f5573d6000803e3d6000fd5b5050600c546040516001600160a01b03909116925063f5d82b6b91508390600990610a2390889088906120c9565b908152604051908190036020018120546001600160e01b031960e085901b168252610a6592916004016001600160a01b03929092168252602082015260400190565b600060405180830381600087803b158015610a7f57600080fd5b505af1158015610a93573d6000803e3d6000fd5b505050507f5c105ec7fd64d57d7052722ed463e62b4045e810ae5841ee26f4ae482a9e74f6838383604051610aca939291906121ae565b60405180910390a1505050565b600a6020526000908152604090208054610af090612073565b80601f0160208091040260200160405190810160405280929190818152602001828054610b1c90612073565b8015610b695780601f10610b3e57610100808354040283529160200191610b69565b820191906000526020600020905b815481529060010190602001808311610b4c57829003601f168201915b505050505081565b3360009081526020819052604090205460ff90811614610b9057600080fd5b610b9b8160ff6114b8565b50565b3360009081526020819052604090205460ff90811614610bbd57600080fd5b610b9b8160016114b8565b3360009081526020819052604090205460ff16610be457600080fd5b60068282604051610bf69291906120c9565b90815260200160405180910390205460068585604051610c179291906120c9565b9081526040519081900360200190205550505050565b600081815260076020526040812060010154606091908190610c4f5783610c62565b6000848152600760205260409020600101545b60008181526007602052604090206002810154815492935090918290610c8790612073565b80601f0160208091040260200160405190810160405280929190818152602001828054610cb390612073565b8015610d005780601f10610cd557610100808354040283529160200191610d00565b820191906000526020600020905b815481529060010190602001808311610ce357829003601f168201915b505050505091509250925050915091565b3360009081526020819052604090205460ff16610d2d57600080fd5b6001600160a01b038216600090815260046020526040908190209051610d54908390612014565b908152604051908190036020019020805460ff191690555050565b3360009081526020819052604090205460ff16610d8b57600080fd5b600b546001600160a01b0382811660009081526002602052604090819020549051633791b7b360e11b81529190921691636f236f6691610dd291879187919060040161218a565b602060405180830381865afa158015610def573d6000803e3d6000fd5b505050506040513d601f19601f82011682018060405250810190610e1391906121da565b610e1c57600080fd5b610e47818484604051602001610e339291906120f1565b604051602081830303815290604052610d11565b610e5e818484604051602001610e33929190612111565b610e75818484604051602001610e33929190612139565b600b546001600160a01b03828116600090815260026020526040908190205490516302fcddf960e11b815291909216916305f9bbf291610ebc91879187919060040161218a565b600060405180830381600087803b158015610ed657600080fd5b505af1158015610eea573d6000803e3d6000fd5b5050600c546040516001600160a01b0390911692506338ef7d6391508390600990610f1890889088906120c9565b908152604051908190036020018120546001600160e01b031960e085901b168252610f5a92916004016001600160a01b03929092168252602082015260400190565b600060405180830381600087803b158015610f7457600080fd5b505af1158015610f88573d6000803e3d6000fd5b505050507fe334ddcbe7f9fe2a0c7d6e872df7f5f42e1c63896927332853c96107c39a0fe0838383604051610aca939291906121ae565b600c546040516330af0bbf60e21b81526001600160a01b038381166004830152606092169063c2bc2efc90602401600060405180830381865afa15801561100a573d6000803e3d6000fd5b505050506040513d6000823e601f3d908101601f1916820160405261103291908101906121f7565b92915050565b600081815260076020526040812060010154806110585750600192915050565b60015b600082815260076020526040902060020154156110985761107d8160016120d9565b6000928352600760205260409092206002015491905061105b565b9392505050565b84846110ac3383836111d8565b6110b557600080fd5b600687876040516110c79291906120c9565b908152602001604051809103902054600014156110f2576110ec878787876000611337565b5061111e565b61111e600688886040516111079291906120c9565b90815260200160405180910390205486868661150b565b50505050505050565b600b5460405163d6d7d52560e01b81526060916001600160a01b03169063d6d7d5259061115a908690869060040161229c565b600060405180830381865afa158015611177573d6000803e3d6000fd5b505050506040513d6000823e601f3d908101601f1916820160405261109891908101906121f7565b606060006111cc600685856040516111b89291906120c9565b908152602001604051809103902054610c2d565b915091505b9250929050565b6001600160a01b03831660009081526020819052604081205460ff1615158061123957506001600160a01b038416600090815260046020526040808220905161122490869086906120c9565b9081526040519081900360200190205460ff16115b1561124657506001611098565b60015b611254600184612046565b8161ffff16101561132c576001600160a01b038516600090815260046020526040812060029161128b9061ffff85169087896122b0565b6040516112999291906120c9565b9081526040519081900360200190205460ff1614801561130b575061130b60405180604001604052806002815260200161061360f41b8152506040518060400160405280600381526020016261305f60e81b815250600387878661ffff16908092611306939291906122b0565b61163d565b1561131a576001915050611098565b80611324816122da565b915050611249565b506000949350505050565b60006006868660405161134b9291906120c9565b9081526020016040518091039020546000146113925760405162461bcd60e51b815260206004820152600660248201526565786973747360d01b6044820152606401610596565b6005546113a09060016120d9565b60058190556040516006906113b890899089906120c9565b908152602001604051809103902081905550604051806060016040528085858080601f01602080910402602001604051908101604052809392919081815260200183838082843760009201829052509385525050506020808301829052604092830182905260055482526007815291902082518051919261143e928492909101906119c2565b50602082015160018201556040909101516002909101556001600160a01b0382161561147057611470826005546116db565b7f6c3c2e50331e5eae4b1b38424afd2b42c40af281e3fbc904ef29728660d462946005546040516114a391815260200190565b60405180910390a15060055495945050505050565b6001600160a01b03821660009081526020819052604090205460ff16156114de57600080fd5b6001600160a01b03919091166000908152602081905260409020805460ff191660ff909216919091179055565b6005546115199060016120d9565b6005556040805160806020601f86018190040282018101909252606081018481529091829190869086908190850183828082843760009201919091525050509082525060208101869052604001826115725760006115a1565b60008681526007602052604090206001015461158e57856115a1565b6000868152600760205260409020600101545b905260055460009081526007602090815260409091208251805191926115cc928492909101906119c2565b506020828101516001808401919091556040938401516002909301929092556005546000888152600783528490209092018290558251878152908101919091527fb027beb33478862929469d1ec6c6c89f53468df4cf0cff19e416dc86bbbfb006910160405180910390a150505050565b60008382101561164f57506000610602565b8361165c57508015610602565b611682838360008181106116725761167261205d565b9050013560f81c60f81b876117a1565b61168e57506000610602565b60015b828110156116ce576116ae8484838181106116725761167261205d565b6116bc576000915050610602565b806116c6816120ae565b915050611691565b5060019695505050505050565b3360009081526020819052604090205460ff166116f757600080fd5b6001600160a01b0382166000908152600260205260409020548290611770576001805480820182557fb10e2d527612073b26eecdfd717e6a320cf44b4afac2b0732d9fcbe2b7fa0cf60180546001600160a01b0319166001600160a01b0384169081179091559054600091825260026020526040909120555b506001600160a01b03909116600090815260036020908152604080832093835292905220805460ff19166001179055565b6000805b825181101561189c57606160f81b6001600160f81b0319168382815181106117cf576117cf61205d565b01602001516001600160f81b0319161480156117ef57506117ef846118a6565b156117fe576001915050611032565b600360fc1b6001600160f81b03191683828151811061181f5761181f61205d565b01602001516001600160f81b03191614801561183f575061183f8461190b565b1561184e576001915050611032565b836001600160f81b03191683828151811061186b5761186b61205d565b01602001516001600160f81b031916141561188a576001915050611032565b80611894816120ae565b9150506117a5565b5060009392505050565b6000604160f81b6001600160f81b03198316108015906118d45750602d60f91b6001600160f81b0319831611155b806110325750606160f81b6001600160f81b03198316108015906110325750603d60f91b6001600160f81b03198316111592915050565b6000600360fc1b6001600160f81b03198316108015906110325750603960f81b6001600160f81b03198316111592915050565b82805461194a90612073565b90600052602060002090601f01602090048101928261196c57600085556119b2565b82601f106119855782800160ff198235161785556119b2565b828001600101855582156119b2579182015b828111156119b2578235825591602001919060010190611997565b506119be929150611a36565b5090565b8280546119ce90612073565b90600052602060002090601f0160209004810192826119f057600085556119b2565b82601f10611a0957805160ff19168380011785556119b2565b828001600101855582156119b2579182015b828111156119b2578251825591602001919060010190611a1b565b5b808211156119be5760008155600101611a37565b80356001600160a01b0381168114611a6257600080fd5b919050565b634e487b7160e01b600052604160045260246000fd5b604051601f8201601f191681016001600160401b0381118282101715611aa557611aa5611a67565b604052919050565b600082601f830112611abe57600080fd5b81356001600160401b03811115611ad757611ad7611a67565b611aea601f8201601f1916602001611a7d565b818152846020838601011115611aff57600080fd5b816020850160208301376000918101602001919091529392505050565b8015158114610b9b57600080fd5b600080600060608486031215611b3f57600080fd5b611b4884611a4b565b925060208401356001600160401b03811115611b6357600080fd5b611b6f86828701611aad565b9250506040840135611b8081611b1c565b809150509250925092565b600060208284031215611b9d57600080fd5b5035919050565b60008083601f840112611bb657600080fd5b5081356001600160401b03811115611bcd57600080fd5b6020830191508360208285010111156111d157600080fd5b600080600080600060608688031215611bfd57600080fd5b85356001600160401b0380821115611c1457600080fd5b611c2089838a01611ba4565b90975095506020880135915080821115611c3957600080fd5b50611c4688828901611ba4565b9094509250611c59905060408701611a4b565b90509295509295909350565b60005b83811015611c80578181015183820152602001611c68565b83811115611c8f576000848401525b50505050565b60008151808452611cad816020860160208601611c65565b601f01601f19169290920160200192915050565b6000602080830181845280855180835260408601915060408160051b870101925083870160005b82811015611d1657603f19888603018452611d04858351611c95565b94509285019290850190600101611ce8565b5092979650505050505050565b600060208284031215611d3557600080fd5b61109882611a4b565b600080600060408486031215611d5357600080fd5b83356001600160401b03811115611d6957600080fd5b611d7586828701611ba4565b9094509250611d88905060208501611a4b565b90509250925092565b6020815260006110986020830184611c95565b60008060008060408587031215611dba57600080fd5b84356001600160401b0380821115611dd157600080fd5b611ddd88838901611ba4565b90965094506020870135915080821115611df657600080fd5b50611e0387828801611ba4565b95989497509550505050565b604081526000611e226040830185611c95565b90508260208301529392505050565b60008060408385031215611e4457600080fd5b611e4d83611a4b565b915060208301356001600160401b03811115611e6857600080fd5b611e7485828601611aad565b9150509250929050565b6020808252825182820181905260009190848201906040850190845b81811015611eb657835183529284019291840191600101611e9a565b50909695505050505050565b600080600080600060608688031215611eda57600080fd5b85356001600160401b0380821115611ef157600080fd5b611efd89838a01611ba4565b90975095506020880135915080821115611f1657600080fd5b50611f2388828901611ba4565b9094509250506040860135611f3781611b1c565b809150509295509295909350565b60008060208385031215611f5857600080fd5b82356001600160401b03811115611f6e57600080fd5b611f7a85828601611ba4565b90969095509350505050565b600060208284031215611f9857600080fd5b81356001600160401b03811115611fae57600080fd5b611fba84828501611aad565b949350505050565b600080600060408486031215611fd757600080fd5b611fe084611a4b565b925060208401356001600160401b03811115611ffb57600080fd5b61200786828701611ba4565b9497909650939450505050565b60008251612026818460208701611c65565b9190910192915050565b634e487b7160e01b600052601160045260246000fd5b60008282101561205857612058612030565b500390565b634e487b7160e01b600052603260045260246000fd5b600181811c9082168061208757607f821691505b602082108114156120a857634e487b7160e01b600052602260045260246000fd5b50919050565b60006000198214156120c2576120c2612030565b5060010190565b8183823760009101908152919050565b600082198211156120ec576120ec612030565b500190565b6337b9339d60e11b81528183600483013760009101600401908152919050565b6331b7b71d60e11b815281836004830137602f60f81b91016004810191909152600501919050565b633a37b59d60e11b815281836004830137602f60f81b91016004810191909152600501919050565b81835281816020850137506000828201602090810191909152601f909101601f19169091010190565b60408152600061219e604083018587612161565b9050826020830152949350505050565b6040815260006121c2604083018587612161565b905060018060a01b0383166020830152949350505050565b6000602082840312156121ec57600080fd5b815161109881611b1c565b6000602080838503121561220a57600080fd5b82516001600160401b038082111561222157600080fd5b818501915085601f83011261223557600080fd5b81518181111561224757612247611a67565b8060051b9150612258848301611a7d565b818152918301840191848101908884111561227257600080fd5b938501935b8385101561229057845182529385019390850190612277565b98975050505050505050565b602081526000611fba602083018486612161565b600080858511156122c057600080fd5b838611156122cd57600080fd5b5050820193919092039150565b600061ffff808316818114156122f2576122f2612030565b600101939250505056fea2646970667358221220181b30fbf3c0177491e68bdad9177be165772428af9e670dea5ae50a2d3ab07d64736f6c634300080a0033608060405234801561001057600080fd5b5061068d806100206000396000f3fe608060405234801561001057600080fd5b506004361061004c5760003560e01c806305f9bbf2146100515780636f236f6614610066578063881c75de1461008e578063d6d7d525146100a1575b600080fd5b61006461005f366004610520565b6100c1565b005b610079610074366004610520565b61018c565b60405190151581526020015b60405180910390f35b61006461009c366004610520565b610225565b6100b46100af36600461056c565b610308565b60405161008591906105ae565b60005b600084846040516100d69291906105f2565b908152604051908190036020019020548110156101865781600085856040516101009291906105f2565b9081526020016040518091039020828154811061011f5761011f610602565b906000526020600020015414156101745760008085856040516101439291906105f2565b9081526020016040518091039020828154811061016257610162610602565b60009182526020909120015550505050565b8061017e81610618565b9150506100c4565b50505050565b6000805b600085856040516101a29291906105f2565b908152604051908190036020019020548110156102185782600086866040516101cc9291906105f2565b908152602001604051809103902082815481106101eb576101eb610602565b9060005260206000200154141561020657600191505061021e565b8061021081610618565b915050610190565b50600090505b9392505050565b61023083838361018c565b1561023a57505050565b60005b6000848460405161024f9291906105f2565b908152604051908190036020019020548110156102cf57600084846040516102789291906105f2565b9081526020016040518091039020818154811061029757610297610602565b9060005260206000200154600014156102bd5781600085856040516101439291906105f2565b806102c781610618565b91505061023d565b50600083836040516102e29291906105f2565b908152604051602091819003820190208054600181018255600091825291902001555050565b60606000805b600085856040516103209291906105f2565b9081526040519081900360200190205481101561039a57600080868660405161034a9291906105f2565b9081526020016040518091039020828154811061036957610369610602565b90600052602060002001541115610388578161038481610618565b9250505b8061039281610618565b91505061030e565b5060008167ffffffffffffffff8111156103b6576103b6610641565b6040519080825280602002602001820160405280156103df578160200160208202803683370190505b5090506000915060005b600086866040516103fb9291906105f2565b908152604051908190036020019020548110156104ce5760008087876040516104259291906105f2565b9081526020016040518091039020828154811061044457610444610602565b906000526020600020015411156104bc57600086866040516104679291906105f2565b9081526020016040518091039020818154811061048657610486610602565b90600052602060002001548284815181106104a3576104a3610602565b6020908102919091010152826104b881610618565b9350505b806104c681610618565b9150506103e9565b50949350505050565b60008083601f8401126104e957600080fd5b50813567ffffffffffffffff81111561050157600080fd5b60208301915083602082850101111561051957600080fd5b9250929050565b60008060006040848603121561053557600080fd5b833567ffffffffffffffff81111561054c57600080fd5b610558868287016104d7565b909790965060209590950135949350505050565b6000806020838503121561057f57600080fd5b823567ffffffffffffffff81111561059657600080fd5b6105a2858286016104d7565b90969095509350505050565b6020808252825182820181905260009190848201906040850190845b818110156105e6578351835292840192918401916001016105ca565b50909695505050505050565b8183823760009101908152919050565b634e487b7160e01b600052603260045260246000fd5b600060001982141561063a57634e487b7160e01b600052601160045260246000fd5b5060010190565b634e487b7160e01b600052604160045260246000fdfea2646970667358221220afaa352e0c5a5c65a6882febd68555a8ba491186932e1b81a2d8606823f5597464736f6c634300080a0033608060405234801561001057600080fd5b506105b7806100206000396000f3fe608060405234801561001057600080fd5b506004361061004c5760003560e01c80632aba109d1461005157806338ef7d6314610079578063c2bc2efc1461008e578063f5d82b6b146100ae575b600080fd5b61006461005f36600461049c565b6100c1565b60405190151581526020015b60405180910390f35b61008c61008736600461049c565b61014b565b005b6100a161009c3660046104c6565b6101fe565b60405161007091906104e8565b61008c6100bc36600461049c565b6103a3565b6000805b6001600160a01b03841660009081526020819052604090205481101561013f576001600160a01b03841660009081526020819052604090208054849190839081106101125761011261052c565b9060005260206000200154141561012d576001915050610145565b8061013781610542565b9150506100c5565b50600090505b92915050565b60005b6001600160a01b0383166000908152602081905260409020548110156101f9576001600160a01b038316600090815260208190526040902080548391908390811061019b5761019b61052c565b906000526020600020015414156101e7576001600160a01b03831660009081526020819052604081208054839081106101d6576101d661052c565b600091825260209091200155505050565b806101f181610542565b91505061014e565b505050565b60606000805b6001600160a01b03841660009081526020819052604090205481101561027f576001600160a01b038416600090815260208190526040812080548390811061024e5761024e61052c565b9060005260206000200154111561026d578161026981610542565b9250505b8061027781610542565b915050610204565b5060008167ffffffffffffffff81111561029b5761029b61056b565b6040519080825280602002602001820160405280156102c4578160200160208202803683370190505b5090506000915060005b6001600160a01b03851660009081526020819052604090205481101561039b576001600160a01b03851660009081526020819052604081208054839081106103185761031861052c565b90600052602060002001541115610389576001600160a01b03851660009081526020819052604090208054829081106103535761035361052c565b90600052602060002001548284815181106103705761037061052c565b60209081029190910101528261038581610542565b9350505b8061039381610542565b9150506102ce565b509392505050565b6103ad82826100c1565b156103b6575050565b60005b6001600160a01b038316600090815260208190526040902054811015610455576001600160a01b03831660009081526020819052604090208054829081106104035761040361052c565b906000526020600020015460001415610443576001600160a01b03831660009081526020819052604090208054839190839081106101d6576101d661052c565b8061044d81610542565b9150506103b9565b506001600160a01b039091166000908152602081815260408220805460018101825590835291200155565b80356001600160a01b038116811461049757600080fd5b919050565b600080604083850312156104af57600080fd5b6104b883610480565b946020939093013593505050565b6000602082840312156104d857600080fd5b6104e182610480565b9392505050565b6020808252825182820181905260009190848201906040850190845b8181101561052057835183529284019291840191600101610504565b50909695505050505050565b634e487b7160e01b600052603260045260246000fd5b600060001982141561056457634e487b7160e01b600052601160045260246000fd5b5060010190565b634e487b7160e01b600052604160045260246000fdfea264697066735822122052492d5f50049782171ed6997f082729a5278d1b1ef6177ae80dd3006d59b46b64736f6c634300080a0033",
    "linkReferences": {}
  }
}